:020000040800F2
:1000000000000120110C0008850B00088D0B000872
:10001000950B00089D0B0008A50B000800000000D0
:10002000000000000000000000000000AD0B000810
:10003000B90B000800000000C50B0008D10B000838
:10004000590C0008590C0008590C0008590C0008FC
:10005000590C0008590C0008E10B0008590C000865
:10006000590C0008590C0008590C0008590C0008DC
:10007000590C0008590C0008590C0008590C0008CC
:10008000590C0008590C0008590C0008590C0008BC
:10009000590C0008590C0008590C0008590C0008AC
:1000A000590C0008590C0008590C0008590C00089C
:1000B000F10B0008590C0008590C0008590C0008F5
:1000C000590C0008590C0008590C0008590C00087C
:1000D000590C0008590C0008590C0008590C00086C
:1000E000590C0008590C0008590C0008590C00085C
:1000F000590C0008590C0008590C0008590C00084C
:10010000590C0008590C0008590C0008590C00083B
:10011000590C0008590C0008590C0008590C00082B
:10012000590C0008590C0008590C0008590C00081B
:1001300000000000000000000000000000000000BF
:1001400000000000000000000000000000000000AF
:10015000000000000000000000000000000000009F
:10016000000000000000000000000000000000008F
:10017000000000000000000000000000000000007F
:10018000000000000000000000000000000000006F
:10019000000000000000000000000000000000005F
:1001A000000000000000000000000000000000004F
:1001B000000000000000000000000000000000003F
:1001C000000000000000000000000000000000002F
:1001D000000000000000000000000000000000001F
:1001E0005FF8E0F110B5054C237833B9044B13B137
:1001F0000448AFF300800123237010BD10000020DD
:1002000000000000982A000808B5034B1BB1034901
:100210000348AFF3008008BD000000001400002078
:10022000982A0008034613F8012B002AFBD1181A5C
:100230000138704780B586B000AF354B1B78DBB214
:10024000002B60D000F062FD38614021314801F0A0
:1002500049F80346012B0CBF01230023DBB2FB73DB
:100260002D4B1B78FA7B9A4205D02B4AFB7B1370EF
:100270002A4A3B691360FB7B002B02D04FF47A7350
:1002800001E04FF49663BB60244B1B683A69D31AB4
:100290007B617A69BB689A420DD37B69BA68B3FB0C
:1002A000F2F2B96801FB02F29B1A7B613A697B6941
:1002B000D31A1A4A1360FB7B002B08D07B6940F2EB
:1002C000F312934294BF01230023DBB20DE07B695C
:1002D000632B06D97B69C72B05D97B69B3F5967F5C
:1002E00001D2012300E00023DBB2FB71FB79002B7C
:1002F0000CBF01230023DBB21A464FF4005108481B
:1003000001F007F800E000BF1837BD4680BD00BF10
:10031000C8000020000C014000000020D400002094
:100320000010014080B582B000AF78607868FFF7B8
:1003300079FF03469AB24FF47A737968034802F062
:10034000ABF900BF0837BD4680BD00BF7C00002070
:1003500080B500AF0121054800F0C4FF0346002B23
:1003600001D1012300E00023184680BD00080140B0
:1003700080B584B000AF03463960FB801346BB8074
:100380000023FB810023BB810023BB810DE0FFF72D
:10039000DFFF0346002B02D0FB890133FB81386865
:1003A00000F0BEFCBB890133BB81BA89FB889A424D
:1003B000EDD3FA89BB889A4201D3012300E00023E0
:1003C00018461037BD4680BD80B500AFFFF7C0FFAF
:1003D0000346002B06D00748FFF7A4FF02E00A20DF
:1003E00000F09EFCFFF7B4FF0346002BF7D100BFDF
:1003F00000BF80BDB02A000880B582B000AF0023E6
:10040000FB71FFF7A5FF0346002B0BD1FB79002BF7
:1004100004D11048FFF786FF0123FB710A2000F08A
:100420007FFC12E00023FB710B48FFF77BFFB42237
:100430000A21C820FFF79CFF0346002B06D107487E
:10044000FFF770FF322000F06BFCDAE700BF0837DF
:10045000BD4680BDEC2A0008182B0008582B000868
:1004600080B500AF0C4B00221A600C4B00221A70B2
:1004700000F03CF80A4B1B6800225A62012240211E
:10048000084800F046FF0848FFF74CFF044801F019
:10049000DBFB00BF80BD00BFC4000020C9000020FE
:1004A00034000020000C0140A02B000880B500AFF4
:1004B0000A4801F029FC094B1B6800225A620022FD
:1004C0004021074800F025FF064B00221A60064B2A
:1004D00000221A7000F00AF800BF80BD340000202E
:1004E000000C0140C4000020C900002080B400AF0F
:1004F000074B00221A70074B00221A60064B00229D
:100500001A80064B00221A8000BFBD4680BC70478F
:10051000CA000020CC000020D0000020D200002023
:1005200080B500AF084B01221A70084B00221A80D8
:10053000074B00221A8000F0E9FB03460A33054A04
:10054000136000BF80BD00BFCA000020D0000020A3
:10055000D2000020CC00002080B582B000AF00F0B7
:10056000D5FB7860214B1B78002B17D1002338E096
:10057000FFF7EEFE0346002B05D01D4B1B88013311
:100580009AB21B4B1A801B4B1B8801339AB2194B32
:100590001A80194B1B680A33174A1360164B1B68E5
:1005A0007A68D31A002B04DB124B1B88B3F5FA7F51
:1005B000DED3104B1B88B3F5FA7F11D30C4B1B888D
:1005C000B3F5C87F06D3FFF7C3FE0346002B01D067
:1005D000012300E00223FB70FFF788FFFB7800E0B7
:1005E000002318460837BD4680BD00BFCA00002062
:1005F000D2000020D0000020CC00002080B582B0C6
:1006000000AF00F02BFB00F079F800F05FF900F08C
:10061000BBF800F0CDF800F02FF9002240212E4861
:1006200000F077FE2D48FFF77DFE42F2107000F0DB
:1006300077FBFFF7E1FEFFF713FF0023FB71284B69
:100640001B78002B08D1FFF783FE0346002B11D146
:10065000234B01221A700DE0224B1B78002B09D18D
:10066000FFF776FE0346002B04D01F48FFF75AFE23
:10067000FFF756FFFFF770FF0346FB71FB79012B75
:100680000FD11A48FFF74EFEFFF710FF4FF47A70B4
:1006900000F046FBFFF798FEFFF7AEFEFFF7E0FE27
:1006A00005E0FB79022B02D11148FFF73BFE114B0D
:1006B0001B68B32BC1D91048FFF734FEFFF7F6FED5
:1006C0004FF47A7000F02CFBFFF77EFEFFF794FEEC
:1006D000FFF7C6FEB1E700BF000C0140D42B0008B5
:1006E000C9000020CA000020182C0008602C000857
:1006F000942C0008C4000020C02C000880B590B0E5
:1007000000AF07F1180328220021184602F098F9DB
:100710003B1D00221A605A609A60DA601A61012358
:10072000BB614FF48033FB6100233B620123BB625A
:1007300002237B634FF48033BB634FF4E013FB630E
:1007400007F11803184600F01FFE0346002B01D0E6
:1007500000F052F90F237B600223BB600023FB6093
:100760004FF480633B6100237B613B1D02211846EF
:1007700001F08CF80346002B01D000F03DF900BFDA
:100780004037BD4680BD000080B500AF064B074A2C
:100790001A60054800F0F5FB0346002B01D000F07D
:1007A0002BF900BF80BD00BF2C00002000300240AC
:1007B00080B58CB000AF07F1200300221A605A60A8
:1007C0009A60DA6007F10C0300221A605A609A609E
:1007D000DA601A613B1D00221A605A60254B4FF007
:1007E00080421A60234B41F61F425A60214B00227F
:1007F0009A60204B42F20F72DA601E4B00221A619F
:100800001C4B00229A611B4801F0CEF90346002BD5
:1008100001D000F0F1F84FF480533B6207F1200360
:100820001946144801F08EFB0346002B01D000F05E
:10083000E3F80023FB6000233B6107F10C0319463A
:100840000C4801F046FC0346002B01D000F0D4F820
:1008500000237B600023BB603B1D1946054801F067
:100860004DFE0346002B01D000F0C6F800BF303724
:10087000BD4680BD3400002080B500AF114B124A48
:100880001A60104B4FF4E1325A600E4B00229A600E
:100890000C4B0022DA600B4B00221A61094B0C2230
:1008A0005A61084B00229A61064B0022DA61054822
:1008B00001F0A2FE0346002B01D000F09DF800BF1E
:1008C00080BD00BF7C000020004C004080B588B097
:1008D00000AF07F1100300221A605A609A60DA60D4
:1008E000354B9B69344A43F010039361324B9B694B
:1008F00003F01003FB60FB682F4B9B692E4A43F00B
:10090000200393612C4B9B6903F02003BB60BB6801
:10091000294B9B69284A43F004039361264B9B694A
:1009200003F004037B607B68234B9B69224A43F0FE
:1009300008039361204B9B6903F008033B603B680D
:1009400001224FF400511D4800F0E3FC0022402139
:100950001B4800F0DEFC4FF400533B6101237B6138
:100960000023BB610223FB6107F110031946134802
:1009700000F024FB01233B6100237B610023BB616A
:1009800007F1100319460F4800F018FB40233B61A4
:1009900001237B610023BB610223FB6107F110038C
:1009A0001946074800F00AFB074B01221A7000BFE6
:1009B0002037BD4680BD00BF00100240001001403E
:1009C000000C014000080140C800002080B483B042
:1009D00000AF78607B681B68B3F1804F04D1054B92
:1009E0001B680133034A136000BF0C37BD4680BC4F
:1009F000704700BFC400002080B400AF72B600BFD3
:100A000000BFFDE780B485B000AF154B9B69144A69
:100A100043F001039361124B9B6903F00103BB6038
:100A2000BB680F4BDB690E4A43F08053D3610C4B1C
:100A3000DB6903F080537B607B680A4B5B68FB607B
:100A4000FB6823F0E063FB60FB6843F00073FB602E
:100A5000044AFB68536000BF1437BD4680BC704732
:100A6000001002400000014080B485B000AF786003
:100A70007B681B68094A93420BD1094B5B69084AA2
:100A800043F040035361064B5B6903F04003FB6096
:100A9000FB6800BF1437BD4680BC70470030024081
:100AA0000010024080B584B000AF78607B681B689E
:100AB000B3F1804F13D10C4BDB690B4A43F00103B8
:100AC000D361094BDB6903F00103FB60FB68002283
:100AD00000211C2000F01FFA1C2000F038FA00BF93
:100AE0001037BD4680BD00BF0010024080B588B001
:100AF00000AF786007F1100300221A605A609A6014
:100B0000DA607B681B681C4A934231D11B4BDB695E
:100B10001A4A43F40023D361184BDB6903F4002322
:100B2000FB60FB68154B9B69144A43F0100393610B
:100B3000124B9B6903F01003BB60BB684FF48063EA
:100B40003B6102237B610323FB6107F1100319461C
:100B50000B4800F033FA4FF400633B6100237B61E4
:100B60000023BB6107F110031946054800F026FA7F
:100B700000BF2037BD4680BD004C00400010024041
:100B80000010014080B400AF00BFFDE780B400AFAB
:100B900000BFFDE780B400AF00BFFDE780B400AF49
:100BA00000BFFDE780B400AF00BFFDE780B400AF39
:100BB00000BFBD4680BC704780B400AF00BFBD46DB
:100BC00080BC704780B400AF00BFBD4680BC70479A
:100BD00080B500AF00F088F8FFF72CFB00BF80BDA8
:100BE00080B500AF012000F0ADFB00BF80BD00006C
:100BF00080B500AF024801F0B5F800BF80BD00BF6E
:100C00003400002080B400AF00BFBD4680BC7047F8
:100C1000FFF7F8FF0B480C490C4A002302E0D458B8
:100C2000C4500433C4188C42F9D3094A094C002338
:100C300001E013600432A242FBD301F009FFFFF789
:100C4000DDFC70470000002010000020282D000867
:100C500010000020DC000020FEE7000080B500AF9F
:100C6000084B1B68074A43F010031360032000F091
:100C700047F90F2000F008F8FFF7C4FE00231846DC
:100C800080BD00BF0020024080B582B000AF786018
:100C9000124B1A68124B1B7819464FF47A73B3FB48
:100CA000F1F3B2FBF3F3184600F05FF90346002BB3
:100CB00001D001230EE07B680F2B0AD8002279684F
:100CC0004FF0FF3000F027F9064A7B6813600023DD
:100CD00000E0012318460837BD4680BD040000200F
:100CE0000C0000200800002080B400AF054B1B78EA
:100CF0001A46054B1B681344034A136000BFBD46E8
:100D000080BC70470C000020D800002080B400AFE9
:100D1000024B1B681846BD4680BC7047D8000020B7
:100D200080B584B000AF7860FFF7F0FFB8607B68F3
:100D3000FB60FB68B3F1FF3F05D00A4B1B781A46F6
:100D4000FB681344FB6000BFFFF7E0FF0246BB688F
:100D5000D31AFA689A42F7D800BF00BF1037BD46D1
:100D600080BD00BF0C00002080B485B000AF78606B
:100D70007B6803F00703FB600C4BDB68BB60BA6861
:100D80004FF6FF031340BB60FB681A02BB681343B6
:100D900043F0BF6343F40033BB60044ABB68D360D5
:100DA00000BF1437BD4680BC704700BF00ED00E0B7
:100DB00080B400AF044BDB681B0A03F0070318463E
:100DC000BD4680BC704700BF00ED00E080B483B03A
:100DD00000AF0346FB7197F90730002B0BDBFB7963
:100DE00003F01F02064997F907305B09012000FA5A
:100DF00002F241F8232000BF0C37BD4680BC70478B
:100E000000E100E080B483B000AF03463960FB71BD
:100E100097F90730002B0ADB3B68DAB20C4997F9E7
:100E200007301201D2B20B4483F800230AE03B687A
:100E3000DAB20849FB7903F00F03043B1201D2B286
:100E40000B441A7600BF0C37BD4680BC704700BF0C
:100E500000E100E000ED00E080B489B000AFF86090
:100E6000B9607A60FB6803F00703FB61FB69C3F1BB
:100E70000703042B28BF0423BB61FB690433062B43
:100E800002D9FB69033B00E000237B614FF0FF3296
:100E9000BB6902FA03F3DA43BB681A407B699A40E4
:100EA0004FF0FF317B6901FA03F3D9437B680B40B4
:100EB000134318462437BD4680BC704780B582B0C6
:100EC00000AF78607B68013BB3F1807F01D30123E1
:100ED0000FE00A4A7B68013B53600F214FF0FF305F
:100EE000FFF790FF054B00229A60044B07221A601F
:100EF000002318460837BD4680BD00BF10E000E063
:100F000080B582B000AF78607868FFF72DFF00BF32
:100F10000837BD4680BD80B586B000AF0346B960D6
:100F20007A60FB7300237B61FFF742FF78617A6888
:100F3000B9687869FFF790FF024697F90F301146BC
:100F40001846FFF75FFF00BF1837BD4680BD80B56C
:100F500082B000AF0346FB7197F907301846FFF7E0
:100F600035FF00BF0837BD4680BD80B582B000AFF9
:100F700078607868FFF7A2FF034618460837BD4639
:100F800080BD80B582B000AF78607B68002B01D156
:100F900001230EE07B685B79DBB2002B05D17B6817
:100FA00000221A717868FFF75FFD7B6801225A7191
:100FB000002318460837BD4680BD000080B48BB0C2
:100FC00000AF7860396000237B6200233B6279E1E7
:100FD00001227B6A02FA03F3FB613B681B68FA6932
:100FE0001340BB61BA69FB699A4240F068813B6873
:100FF0005B68964A93425ED0944A934275D8944A6D
:10100000934258D0924A93426FD8924A934252D018
:10101000904A934269D8904A93424CD08E4A934268
:1010200063D88E4A934246D08C4A93425DD8122BA5
:101030002AD8122B59D801A252F823F0B710000871
:1010400091100008A3100008E5100008EB1000083C
:10105000EB100008EB100008EB100008EB10000884
:10106000EB100008EB100008EB100008EB10000874
:10107000EB100008EB100008EB100008EB10000864
:1010800099100008AD100008754A934213D02CE067
:101090003B68DB683B6229E03B68DB6804333B620A
:1010A00024E03B68DB6808333B621FE03B68DB6899
:1010B0000C333B621AE03B689B68002B02D104238F
:1010C0003B6213E03B689B68012B05D108233B6220
:1010D0007B68FA691A6109E008233B627B68FA6958
:1010E0005A6103E000233B6200E000BFBB69FF2BB5
:1010F00001D87B6801E07B6804337B61BB69FF2B0F
:1011000002D87B6A9B0002E07B6A083B9B003B6144
:101110007B691A680F213B6901FA03F3DB431A402C
:10112000396A3B6901FA03F31A437B691A603B6829
:101130005B6803F08053002B00F0C180494B9B6932
:10114000484A43F001039361464B9B6903F0010356
:10115000BB60BB68444A7B6A9B08023352F8233069
:10116000FB607B6A03F003039B000F2202FA03F388
:10117000DB43FA681340FB607B683C4A93421FD014
:101180007B683B4A934219D07B683A4A934213D01A
:101190007B68394A93420DD07B68384A934207D026
:1011A0007B68374A934201D105230AE0062308E011
:1011B000042306E0032304E0022302E0012300E00D
:1011C00000237A6A02F0030292009340FA68134304
:1011D000FB6025497B6A9B080233FA6841F82320AB
:1011E0003B685B6803F48013002B06D0254B9A689C
:1011F0002449BB6913438B6006E0224B9A68BB69A4
:10120000DB43204913408B603B685B6803F40013A9
:10121000002B06D01B4BDA681A49BB691343CB601D
:1012200006E0184BDA68BB69DB4316491340CB6014
:101230003B685B6803F40033002B25D0114B5A68E0
:101240001049BB6913434B6025E000BF000032101A
:1012500000003110000022100000211000001210C8
:101260000000111000100240000001400008014081
:10127000000C014000100140001401400018014022
:10128000001C014000040140154B5A68BB69DB4358
:10129000134913404B603B685B6803F48033002BB9
:1012A00006D00F4B1A680E49BB6913430B6006E06A
:1012B0000B4B1A68BB69DB43094913400B607B6A1F
:1012C00001337B623B681A687B6A22FA03F3002BC6
:1012D0007FF47EAE00BF00BF2C37BD4680BC704798
:1012E0000004014080B485B000AF78600B467B807D
:1012F0007B689A687B881340002B02D00123FB7324
:1013000001E00023FB73FB7B18461437BD4680BC0D
:10131000704780B483B000AF78600B467B80134683
:101320007B707B78002B03D07A887B681A6103E09E
:101330007B881A047B681A6100BF0C37BD4680BCED
:101340007047000080B582B000AF0346FB80084BB9
:101350005A69FB881340002B06D0054AFB8853616D
:10136000FB88184600F006F800BF0837BD4680BD70
:101370000004014080B483B000AF0346FB8000BF8F
:101380000C37BD4680BC704780B586B000AF786032
:101390007B68002B01D1012372E27B681B6803F09C
:1013A0000103002B00F08780924B5B6803F00C0375
:1013B000042B0CD08F4B5B6803F00C03082B12D16D
:1013C0008C4B5B6803F48033B3F5803F0BD1894BC2
:1013D0001B6803F40033002B6CD07B685B68002B28
:1013E00068D101234CE27B685B68B3F5803F06D18E
:1013F000804B1B687F4A43F4803313602EE07B6888
:101400005B68002B0CD17B4B1B687A4A23F480333A
:101410001360784B1B68774A23F4802313601DE028
:101420007B685B68B3F5A02F0CD1724B1B68714AC7
:1014300043F4802313606F4B1B686E4A43F4803380
:1014400013600BE06B4B1B686A4A23F48033136014
:10145000684B1B68674A23F4802313607B685B68D2
:10146000002B13D0FFF752FC386108E0FFF74EFC69
:1014700002463B69D31A642B01D9032300E25D4B7A
:101480001B6803F40033002BF0D014E0FFF73EFCA0
:10149000386108E0FFF73AFC02463B69D31A642B37
:1014A00001D90323ECE1534B1B6803F40033002BF9
:1014B000F0D100E000BF7B681B6803F00203002B43
:1014C00063D04C4B5B6803F00C03002B0BD0494BF3
:1014D0005B6803F00C03082B1CD1464B5B6803F4DC
:1014E0008033002B16D1434B1B6803F00203002B03
:1014F00005D07B681B69012B01D00123C0E13D4B66
:101500001B6823F0F8027B685B69DB0039491343F1
:101510000B603AE07B681B69002B20D0364B012220
:101520001A60FFF7F3FB386108E0FFF7EFFB0246B4
:101530003B69D31A022B01D90323A1E12D4B1B6870
:1015400003F00203002BF0D02A4B1B6823F0F802B3
:101550007B685B69DB00274913430B6015E0264B72
:1015600000221A60FFF7D2FB386108E0FFF7CEFBDC
:1015700002463B69D31A022B01D9032380E11D4B9C
:101580001B6803F00203002BF0D17B681B6803F09B
:101590000803002B3AD07B689B69002B19D0174BAE
:1015A00001221A60FFF7B2FB386108E0FFF7AEFBDB
:1015B00002463B69D31A022B01D9032360E10D4B8C
:1015C0005B6A03F00203002BF0D0012000F0CEFA9A
:1015D0001CE00A4B00221A60FFF798FB38610FE00D
:1015E000FFF794FB02463B69D31A022B08D9032369
:1015F00046E100BF00100240000042428004424227
:10160000924B5B6A03F00203002BE9D17B681B68F5
:1016100003F00403002B00F0A6800023FB758B4B26
:10162000DB6903F08053002B0DD1884BDB69874ABF
:1016300043F08053D361854BDB6903F08053BB607B
:10164000BB680123FB75824B1B6803F48073002B7E
:1016500018D17F4B1B687E4A43F480731360FFF7F9
:1016600055FB386108E0FFF751FB02463B69D31A8E
:10167000642B01D9032303E1754B1B6803F48073CA
:10168000002BF0D07B68DB68012B06D16F4B1B6A07
:101690006E4A43F0010313622DE07B68DB68002B88
:1016A0000CD16A4B1B6A694A23F001031362674B32
:1016B0001B6A664A23F0040313621CE07B68DB6844
:1016C000052B0CD1614B1B6A604A43F00403136283
:1016D0005E4B1B6A5D4A43F0010313620BE05B4BF8
:1016E0001B6A5A4A23F001031362584B1B6A574A7C
:1016F00023F0040313627B68DB68002B15D0FFF72F
:1017000005FB38610AE0FFF701FB02463B69D31A8B
:1017100041F28832934201D90323B1E04B4B1B6A5B
:1017200003F00203002BEED014E0FFF7EFFA38616C
:101730000AE0FFF7EBFA02463B69D31A41F288321E
:10174000934201D903239BE0404B1B6A03F0020341
:10175000002BEED1FB7D012B05D13C4BDB693B4AD5
:1017600023F08053D3617B68DB69002B00F0878016
:10177000364B5B6803F00C03082B61D07B68DB6998
:10178000022B46D1334B00221A60FFF7BFFA3861B3
:1017900008E0FFF7BBFA02463B69D31A022B01D9D6
:1017A00003236DE0294B1B6803F00073002BF0D17D
:1017B0007B681B6AB3F5803F08D1244B5B6823F438
:1017C00000327B689B68214913434B601F4B5B6869
:1017D00023F474127B68196A7B685B6A0B431B49AC
:1017E00013434B601B4B01221A60FFF78FFA3861DD
:1017F00008E0FFF78BFA02463B69D31A022B01D9A6
:1018000003233DE0114B1B6803F00073002BF0D065
:1018100035E0104B00221A60FFF778FA386108E0D3
:10182000FFF774FA02463B69D31A022B01D903234E
:1018300026E0064B1B6803F00073002BF0D11EE07E
:101840007B68DB69012B07D1012319E000100240FE
:1018500000700040600042420B4B5B68FB60FB681D
:1018600003F480327B681B6A9A4206D1FB6803F45A
:1018700070127B685B6A9A4201D0012300E000236A
:1018800018461837BD4680BD0010024080B584B0B0
:1018900000AF786039607B68002B01D10123D0E074
:1018A0006A4B1B6803F007033A689A4210D9674BEA
:1018B0001B6823F0070265493B6813430B60634BC9
:1018C0001B6803F007033A689A4201D00123B8E08D
:1018D0007B681B6803F00203002B20D07B681B6829
:1018E00003F00403002B05D0594B5B68584A43F4BE
:1018F000E06353607B681B6803F00803002B05D08E
:10190000534B5B68524A43F460535360504B5B68DF
:1019100023F0F0027B689B684D4913434B607B6862
:101920001B6803F00103002B40D07B685B68012B30
:1019300007D1474B1B6803F40033002B15D101235B
:101940007FE07B685B68022B07D1414B1B6803F08B
:101950000073002B09D1012373E03D4B1B6803F09A
:101960000203002B01D101236BE0394B5B6823F0AC
:1019700003027B685B68364913434B60FFF7C6F987
:10198000F8600AE0FFF7C2F90246FB68D31A41F299
:101990008832934201D9032353E02D4B5B6803F057
:1019A0000C027B685B689B009A42EBD1274B1B685B
:1019B00003F007033A689A4210D2244B1B6823F0C5
:1019C000070222493B6813430B60204B1B6803F05E
:1019D00007033A689A4201D0012332E07B681B6812
:1019E00003F00403002B08D0194B5B6823F4E0627A
:1019F0007B68DB68164913434B607B681B6803F008
:101A00000803002B09D0124B5B6823F460527B68FB
:101A10001B69DB000E4913434B6000F021F80246BE
:101A20000B4B5B681B0903F00F030A49CB5C22FADE
:101A300003F3094A1360094B1B681846FFF724F9A2
:101A4000002318461037BD4680BD00BF002002406D
:101A500000100240EC2C00080400002008000020C8
:101A600080B487B000AF0023FB600023BB6000237D
:101A70007B6100237B6000233B611E4B5B68FB6046
:101A8000FB6803F00C03042B02D0082B03D027E0E3
:101A9000194B3B6127E0FB689B0C03F00F03174ACF
:101AA000D35C7B60FB6803F48033002B10D0114BB8
:101AB0005B685B0C03F00103114AD35CBB607B687D
:101AC0000D4A03FB02F2BB68B2FBF3F37B6104E057
:101AD0007B680C4A02FB03F37B617B693B6102E09C
:101AE000054B3B6100BF3B6918461C37BD4680BCB7
:101AF000704700BF0010024000127A00042D000859
:101B0000142D000800093D0080B400AF024B1B6893
:101B10001846BD4680BC70470400002080B500AF69
:101B2000FFF7F2FF0246054B5B681B0A03F0070351
:101B30000349CB5C22FA03F3184680BD0010024033
:101B4000FC2C000880B500AFFFF7DEFF0246054B16
:101B50005B68DB0A03F007030349CB5C22FA03F35B
:101B6000184680BD00100240FC2C000880B485B0EF
:101B700000AF78600A4B1B680A4AA2FB03235B0A8A
:101B80007A6802FB03F3FB6000BFFB685A1EFA6031
:101B9000002BF9D100BF00BF1437BD4680BC704791
:101BA00004000020D34D621080B582B000AF786091
:101BB0007B68002B01D1012341E07B6893F83D3025
:101BC000DBB2002B06D17B68002283F83C207868CA
:101BD000FEF768FF7B68022283F83D207B681A6865
:101BE0007B6804331946104600F0DAFA7B6801225C
:101BF00083F846207B68012283F83E207B6801221F
:101C000083F83F207B68012283F840207B68012213
:101C100083F841207B68012283F842207B680122FF
:101C200083F843207B68012283F844207B680122EB
:101C300083F845207B68012283F83D200023184665
:101C40000837BD4680BD000080B485B000AF786025
:101C50007B6893F83D30DBB2012B01D0012344E0D7
:101C60007B68022283F83D207B681B68DA687B680A
:101C70001B6842F00102DA607B681B681D4A9342D0
:101C800018D07B681B681C4A934213D07B681B6882
:101C9000B3F1804F0ED07B681B68184A934209D07D
:101CA0007B681B68164A934204D07B681B68154A00
:101CB000934211D17B681B689B6803F00703FB60AC
:101CC000FB68062B10D07B681B681A687B681B6852
:101CD00042F001021A6007E07B681B681A687B68A3
:101CE0001B6842F001021A60002318461437BD46F3
:101CF00080BC7047002C01400034014000040040CB
:101D000000080040000C004080B483B000AF786051
:101D10007B681B68DA687B681B6822F00102DA6066
:101D20007B681B681A6A41F211131340002B0FD114
:101D30007B681B681A6A40F244431340002B07D1AA
:101D40007B681B681A687B681B6822F001021A60B6
:101D50007B68012283F83D20002318460C37BD46DE
:101D600080BC704780B584B000AF78607B681B682A
:101D7000DB68FB607B681B681B69BB60BB6803F0AA
:101D80000203002B20D0FB6803F00203002B1BD0C2
:101D90007B681B686FF002021A617B6801221A7768
:101DA0007B681B689B6903F00303002B03D07868F2
:101DB00000F0DAF905E0786800F0CDF9786800F015
:101DC000DCF97B6800221A77BB6803F00403002B60
:101DD00020D0FB6803F00403002B1BD07B681B683A
:101DE0006FF004021A617B6802221A777B681B6815
:101DF0009B6903F44073002B03D0786800F0B4F9BA
:101E000005E0786800F0A7F9786800F0B6F97B681B
:101E100000221A77BB6803F00803002B20D0FB6870
:101E200003F00803002B1BD07B681B686FF00802CF
:101E30001A617B6804221A777B681B68DB6903F0F0
:101E40000303002B03D0786800F08EF905E0786872
:101E500000F081F9786800F090F97B6800221A7729
:101E6000BB6803F01003002B20D0FB6803F01003C5
:101E7000002B1BD07B681B686FF010021A617B6817
:101E800008221A777B681B68DB6903F44073002B18
:101E900003D0786800F068F905E0786800F05BF935
:101EA000786800F06AF97B6800221A77BB6803F053
:101EB0000103002B0CD0FB6803F00103002B07D0BB
:101EC0007B681B686FF001021A617868FEF77EFD7F
:101ED000BB6803F08003002B0CD0FB6803F0800389
:101EE000002B07D07B681B686FF080021A6178684E
:101EF00000F079FBBB6803F04003002B0CD0FB68BB
:101F000003F04003002B07D07B681B686FF0400292
:101F10001A61786800F03AF9BB6803F02003002BDF
:101F20000CD0FB6803F02003002B07D07B681B68F4
:101F30006FF020021A61786800F04CFB00BF103788
:101F4000BD4680BD80B584B000AF786039600023A5
:101F5000FB737B6893F83C30012B01D10223B4E082
:101F60007B68012283F83C207B68022283F83D20B5
:101F70007B681B689B68BB60BB6823F07703BB6012
:101F8000BB6823F47F43BB607B681B68BA689A60B8
:101F90003B681B68B3F5005F3ED0B3F5005F00F20D
:101FA0008780B3F5805F00F08680B3F5805F7FD8CF
:101FB000702B1AD0702B7BD8602B50D0602B77D829
:101FC000502B3CD0502B73D8402B58D0402B6FD87F
:101FD000302B64D0302B6BD8202B60D0202B67D8CF
:101FE000002B5CD0102B5AD062E07B6818683B68ED
:101FF00099683B685A683B68DB6800F05FFA7B6869
:102000001B689B68BB60BB6843F07703BB607B6861
:102010001B68BA689A604FE07B6818683B689968EB
:102020003B685A683B68DB6800F048FA7B681B68CD
:102030009A687B681B6842F480429A603CE07B6847
:1020400018683B6859683B68DB681A4600F0BFF9BE
:102050007B681B685021184600F016FA2CE07B685C
:1020600018683B6859683B68DB681A4600F0DDF980
:102070007B681B686021184600F006FA1CE07B684C
:1020800018683B6859683B68DB681A4600F09FF99E
:102090007B681B684021184600F0F6F90CE07B686D
:1020A0001A683B681B681946104600F0EDF903E01A
:1020B0000123FB7300E000BF7B68012283F83D2011
:1020C0007B68002283F83C20FB7B18461037BD4616
:1020D00080BD80B582B000AF786039607B6893F8CE
:1020E0003C30012B01D1022331E07B68012283F8CF
:1020F0003C207B68022283F83D203968786800F034
:10210000D5F80346002B09D07B68012283F83D20D7
:102110007B68002283F83C20012318E07B681B6861
:10212000DA687B681B6822F04002DA607B681B6813
:10213000DA687B681B6822F48042DA607B680122DF
:1021400083F83D207B68002283F83C20002318465A
:102150000837BD4680BD80B483B000AF786000BF53
:102160000C37BD4680BC704780B483B000AF786048
:1021700000BF0C37BD4680BC704780B483B000AF51
:10218000786000BF0C37BD4680BC704780B483B018
:1021900000AF786000BF0C37BD4680BC70470000C0
:1021A00080B485B000AF786039607B681B68FB60E5
:1021B0007B68394A934213D07B68384A93420FD0E8
:1021C0007B68B3F1804F0BD07B68354A934207D0D0
:1021D0007B68344A934203D07B68334A934208D1E8
:1021E000FB6823F07003FB603B685B68FA6813438D
:1021F000FB607B68284A934213D07B68274A93424E
:102200000FD07B68B3F1804F0BD07B68244A934298
:1022100007D07B68234A934203D07B68224A9342CB
:1022200008D1FB6823F44073FB603B68DB68FA6805
:102230001343FB60FB6823F080023B685B69134338
:10224000FB607B68FA681A603B689A687B68DA62B0
:102250003B681A687B689A627B680F4A934203D096
:102260007B680E4A934203D13B681A697B681A6304
:102270007B6801225A617B681B6903F00103002B14
:1022800005D07B681B6923F001027B681A6100BFDF
:102290001437BD4680BC7047002C0140003401401B
:1022A0000004004000080040000C004080B586B0EB
:1022B00000AF786039600023FB757B681B689B6802
:1022C0003B613B6923F070033B613B685B683A69A3
:1022D00013433B613B6923F007033B613B681B6889
:1022E0003A6913433B617B681B683A699A603B68B3
:1022F0005B68702B1AD0702B60D8602B54D0602B89
:102300005CD8502B46D0502B58D8402B19D0402B9E
:1023100054D8302B55D0302B50D8202B51D0202BD7
:102320004CD8002B4DD0102B4BD047E07B68186861
:102330003B68D9683B689A683B681B6900F0BEF847
:1023400040E03B681B68052B01D101233BE07B6823
:102350001B681B6AFB607B681B681A6A7B681B68CA
:1023600022F001021A627B681B689B69BB60BB6834
:1023700023F0F003BB603B681B691B01BA68134381
:10238000BB607B681B68BA689A617B681B68FA68E7
:102390001A6217E07B6818683B6899683B681B699C
:1023A0001A4600F014F80DE07B6818683B689968DD
:1023B0003B681B691A4600F038F803E00123FB75FF
:1023C00000E000BFFB7D18461837BD4680BD80B4D5
:1023D00087B000AFF860B9607A60FB681B6A7B6108
:1023E000FB681B6A23F00102FB681A62FB689B69A9
:1023F0003B613B6923F0F0033B617B681B013A6959
:1024000013433B617B6923F00A037B617A69BB68F4
:1024100013437B61FB683A699A61FB687A691A62C7
:1024200000BF1C37BD4680BC704780B487B000AF8A
:10243000F860B9607A60FB681B6A7B61FB681B6AA5
:1024400023F01002FB681A62FB689B693B613B69E1
:1024500023F470433B617B681B033A6913433B6180
:102460007B6923F0A0037B61BB681B017A6913437E
:102470007B61FB683A699A61FB687A691A6200BFFE
:102480001C37BD4680BC704780B485B000AF786013
:1024900039607B689B68FB60FB6823F07003FB601E
:1024A0003A68FB68134343F00703FB607B68FA68F4
:1024B0009A6000BF1437BD4680BC704780B487B0B7
:1024C00000AFF860B9607A603B60FB689B687B6135
:1024D0007B6923F47F437B613B681A027B681A4364
:1024E000BB6813437A6913437B61FB687A699A601E
:1024F00000BF1C37BD4680BC7047000080B485B06B
:1025000000AF786039607B6893F83C30012B01D1D3
:10251000022350E07B68012283F83C207B68022282
:1025200083F83D207B681B685B68FB607B681B68E9
:102530009B68BB60FB6823F07003FB603B681B6813
:10254000FA681343FB607B681B68FA685A607B6813
:102550001B681B4A934218D07B681B68194A934238
:1025600013D07B681B68B3F1804F0ED07B681B686B
:10257000154A934209D07B681B68144A934204D0E1
:102580007B681B68124A93420CD1BB6823F080031E
:10259000BB603B685B68BA681343BB607B681B68C1
:1025A000BA689A607B68012283F83D207B6800222C
:1025B00083F83C20002318461437BD4680BC704782
:1025C000002C01400034014000040040000800409D
:1025D000000C004080B483B000AF786000BF0C37BF
:1025E000BD4680BC704780B483B000AF786000BF48
:1025F0000C37BD4680BC704780B582B000AF7860B4
:102600007B68002B01D1012342E07B6893F84130C5
:10261000DBB2002B06D17B68002283F8402078686B
:10262000FEF764FA7B68242283F841207B681B68EC
:10263000DA687B681B6822F40052DA60786800F080
:1026400071F97B681B681A697B681B6822F49042E9
:102650001A617B681B685A697B681B6822F02A0232
:102660005A617B681B68DA687B681B6842F4005219
:10267000DA607B6800225A647B68202283F841205C
:102680007B68202283F842207B6800225A63002363
:1026900018460837BD4680BD80B58AB002AFF860E5
:1026A000B9603B601346FB8000237B61FB6893F8B5
:1026B0004130DBB2202B75D1BB68002B02D0FB88E8
:1026C000002B01D101236EE0FB6800225A64FB68F5
:1026D000212283F84120FEF719FB7861FB68FA8814
:1026E0009A84FB68FA88DA84FB689B68B3F5805F9C
:1026F00008D1FB681B69002B04D10023FB61BB6878
:10270000BB6103E0BB68FB610023BB612EE03B685B
:1027100000937B6900228021F86800F048F80346A6
:10272000002B05D0FB68202283F8412003233AE0E8
:10273000FB69002B0BD1BB691B881A46FB681B6821
:10274000C2F308025A60BB690233BB6107E0FB6950
:102750001A78FB681B685A60FB690133FB61FB68F0
:10276000DB8C9BB2013B9AB2FB68DA84FB68DB8CA2
:102770009BB2002BCBD13B6800937B6900224021A8
:10278000F86800F014F80346002B05D0FB682022FF
:1027900083F84120032306E0FB68202283F84120D0
:1027A000002300E0022318462037BD4680BD80B5D7
:1027B00086B000AFF860B9603B601346FB713BE048
:1027C0003B6AB3F1FF3F37D0FEF7A0FA02463B6801
:1027D000D31A3A6A9A4202D33B6A002B01D10323EF
:1027E0003AE0FB681B68DB6803F00403002B23D08E
:1027F000BB68802B20D0BB68402B1DD0FB681B68BA
:102800001B6803F00803082B16D100237B61FB68CB
:102810001B681B687B61FB681B685B687B617B696D
:10282000F86800F01DF8FB6808225A64FB68002273
:1028300083F8402001230FE0FB681B681A68BB681F
:102840001340BA689A420CBF01230023DBB21A4638
:10285000FB799A42B4D0002318461837BD4680BD94
:1028600080B495B000AF78607B681B680C337B63E5
:102870007B6B53E8003F3B633B6B23F49073FB643B
:102880007B681B680C33FA6C3A64FB63F96B3A6C37
:1028900041E80023BB63BB6B002BE5D17B681B6861
:1028A00014333B623B6A53E8003FFB61FB6923F052
:1028B0000103BB647B681B681433BA6CFA62BB62A9
:1028C000B96AFA6A41E800237B627B6A002BE5D192
:1028D0007B681B6B012B19D17B681B680C33FB6079
:1028E000FB6853E8003FBB60BB6823F010037B64C8
:1028F0007B681B680C337A6CBA617B617969BA6951
:1029000041E800233B613B69002BE5D17B68202235
:1029100083F842207B6800221A6300BF5437BD460B
:1029200080BC704780B584B000AF78607B681B685E
:102930001B6923F440517B68DA687B681B680A4393
:102940001A617B689A687B681B691A437B685B69BC
:102950001343BB607B681B68DB6823F4B05323F030
:102960000C037A681268B9680B43D3607B681B68F4
:102970005B6923F440717B689A697B681B680A4332
:102980005A617B681B682C4A934203D1FFF7DAF83F
:10299000F86002E0FFF7C2F8F860FA6813469B009F
:1029A00013449A001A447B685B689B00B2FBF3F304
:1029B000224AA2FB03235B091901FA6813469B0014
:1029C00013449A001A447B685B689B00B2FBF3F2E5
:1029D0001A4BA3FB02035B09642000FB03F3D31A29
:1029E0001B013233154AA2FB03235B0903F0F003FA
:1029F0001944FA6813469B0013449A001A447B68F2
:102A00005B689B00B2FBF3F20C4BA3FB02035B0978
:102A1000642000FB03F3D31A1B013233074AA2FBE5
:102A200003235B0903F00F027B681B680A449A606A
:102A300000BF1037BD4680BD003801401F85EB51F7
:102A400003460244934200D1704703F8011BF9E7A3
:102A500070B500260C4D0D4C641BA410A64209D184
:102A600000F01AF800260A4D0A4C641BA410A64276
:102A700005D170BD55F8043B98470136EEE755F88F
:102A8000043B98470136F2E7202D0008202D00086E
:102A9000202D0008242D0008F8B500BFF8BC08BCA4
:102AA0009E467047F8B500BFF8BC08BC9E4670470C
:102AB0004573706572616E646F206C6962657261E6
:102AC0007220626F746F6E20616E7465732064652E
:102AD000207065726D69746972206E7565766F20FD
:102AE000696E6963696F2E2E2E0D0A00457370653D
:102AF00072616E646F20626F746F6E2076616C69B4
:102B0000646F207061726120696E69636961722E01
:102B10002E2E0D0A00000000426F746F6E20646557
:102B20007465637461646F2E2056616C6964616EB4
:102B3000646F206D69656E74726173207365206DBA
:102B4000616E74656E67612070726573696F6E6126
:102B5000646F2E2E2E0D0A0046616C736F20706F0D
:102B600073697469766F206F20727569646F2E20A7
:102B70005265696E74656E74616E646F207369204E
:102B8000656C20626F746F6E207369677565207065
:102B9000726573696F6E61646F2E2E2E0D0A0000D0
:102BA000426F746F6E2076616C696461646F2E2071
:102BB000417272616E63616E646F206369636C6FF2
:102BC0002064652033206D696E75746F732E2E2E10
:102BD0000D0A000053697374656D6120656E65723E
:102BE00067697A61646F2E204573706572616E64E7
:102BF0006F20626F746F6E207061726120696E6900
:102C0000636961722073696E20646F726D69722EE0
:102C10002E2E0D0A00000000426F746F6E20646556
:102C20007465637461646F20647572616E7465208D
:102C30006369636C6F2E2056616C6964616E646FAA
:102C40002063616E63656C6163696F6E2031302053
:102C5000736567756E646F732E2E2E0D0A0000006B
:102C6000426F746F6E20736F7374656E69646F204A
:102C7000636F6E6669726D61646F2E2043616E636F
:102C8000656C616E646F206369636C6F2E2E2E0D10
:102C90000A00000043616E63656C6163696F6E20BA
:102CA00069676E6F7261646120706F722066616C1B
:102CB000736F20706F73697469766F2E0D0A000050
:102CC00059612070617361726F6E206C6F73203375
:102CD000206D696E2E2041706167616E646F207295
:102CE000656C61792E2E2E0D0A0000000000000098
:102CF00000000000010203040607080900000000AC
:102D00000102030402030405060708090A0B0C0D5F
:102D10000E0F1010010200000CD5FF7F0100000013
:102D200009020008E50100080200000000127A0014
:082D300010000000010000008A
:00000001FF
